{
  "contractName": "HealthcarePayments",
  "abi": [
    {
      "inputs": [],
      "stateMutability": "nonpayable",
      "type": "constructor"
    },
    {
      "stateMutability": "payable",
      "type": "receive",
      "payable": true
    },
    {
      "inputs": [
        {
          "internalType": "address",
          "name": "doctorAccount",
          "type": "address"
        }
      ],
      "name": "registerAccountForDoctor",
      "outputs": [],
      "stateMutability": "nonpayable",
      "type": "function"
    },
    {
      "inputs": [
        {
          "internalType": "string",
          "name": "token",
          "type": "string"
        }
      ],
      "name": "initBill",
      "outputs": [],
      "stateMutability": "payable",
      "type": "function",
      "payable": true
    },
    {
      "inputs": [
        {
          "internalType": "string",
          "name": "token",
          "type": "string"
        },
        {
          "internalType": "uint256",
          "name": "_amount",
          "type": "uint256"
        },
        {
          "internalType": "address",
          "name": "_doctorAccount",
          "type": "address"
        }
      ],
      "name": "updateBillData",
      "outputs": [],
      "stateMutability": "nonpayable",
      "type": "function"
    },
    {
      "inputs": [
        {
          "internalType": "string",
          "name": "token",
          "type": "string"
        }
      ],
      "name": "getBillDataByToken",
      "outputs": [
        {
          "components": [
            {
              "internalType": "uint256",
              "name": "amount",
              "type": "uint256"
            },
            {
              "internalType": "bool",
              "name": "isPayment",
              "type": "bool"
            },
            {
              "internalType": "address",
              "name": "doctorAccount",
              "type": "address"
            }
          ],
          "internalType": "struct HealthcarePayments.Bill",
          "name": "",
          "type": "tuple"
        }
      ],
      "stateMutability": "view",
      "type": "function",
      "constant": true
    },
    {
      "inputs": [
        {
          "internalType": "string",
          "name": "token",
          "type": "string"
        }
      ],
      "name": "addFunds",
      "outputs": [],
      "stateMutability": "payable",
      "type": "function",
      "payable": true
    },
    {
      "inputs": [
        {
          "internalType": "string",
          "name": "token",
          "type": "string"
        }
      ],
      "name": "checkTokenStatus",
      "outputs": [
        {
          "internalType": "bool",
          "name": "",
          "type": "bool"
        }
      ],
      "stateMutability": "view",
      "type": "function",
      "constant": true
    },
    {
      "inputs": [],
      "name": "getBalanceByDoctorAccount",
      "outputs": [
        {
          "internalType": "uint256",
          "name": "",
          "type": "uint256"
        }
      ],
      "stateMutability": "view",
      "type": "function",
      "constant": true
    },
    {
      "inputs": [],
      "name": "getBalanceByAdminAccount",
      "outputs": [
        {
          "internalType": "uint256",
          "name": "",
          "type": "uint256"
        }
      ],
      "stateMutability": "view",
      "type": "function",
      "constant": true
    },
    {
      "inputs": [
        {
          "internalType": "uint256",
          "name": "withdrawAmount",
          "type": "uint256"
        }
      ],
      "name": "withdraw",
      "outputs": [],
      "stateMutability": "nonpayable",
      "type": "function"
    },
    {
      "inputs": [
        {
          "internalType": "uint256",
          "name": "withdrawAmount",
          "type": "uint256"
        }
      ],
      "name": "withdrawForDoctor",
      "outputs": [],
      "stateMutability": "nonpayable",
      "type": "function"
    },
    {
      "inputs": [],
      "name": "checkCurrentAddressDebug",
      "outputs": [
        {
          "internalType": "address",
          "name": "",
          "type": "address"
        }
      ],
      "stateMutability": "view",
      "type": "function",
      "constant": true
    },
    {
      "inputs": [
        {
          "internalType": "address",
          "name": "accountAddress",
          "type": "address"
        }
      ],
      "name": "getBalanceByDoctorAccountDebug",
      "outputs": [
        {
          "internalType": "uint256",
          "name": "",
          "type": "uint256"
        }
      ],
      "stateMutability": "view",
      "type": "function",
      "constant": true
    },
    {
      "inputs": [
        {
          "internalType": "string",
          "name": "token",
          "type": "string"
        }
      ],
      "name": "checkExistToken",
      "outputs": [
        {
          "internalType": "bool",
          "name": "",
          "type": "bool"
        }
      ],
      "stateMutability": "view",
      "type": "function",
      "constant": true
    }
  ],
  "bytecode": "0x6080604052600060055534801561001557600080fd5b506001600080730199c74bb832c0ccf1971cd34fe0bbe7d12a1dc073ffffffffffffffffffffffffffffffffffffffff1673ffffffffffffffffffffffffffffffffffffffff16815260200190815260200160002060006101000a81548160ff021916908315150217905550600160008073287aebd0467bde80370042ded258d9abadf9448773ffffffffffffffffffffffffffffffffffffffff1673ffffffffffffffffffffffffffffffffffffffff16815260200190815260200160002060006101000a81548160ff021916908315150217905550600180600073f82825161bd8a7a98345415f11a0432b38159b4873ffffffffffffffffffffffffffffffffffffffff1673ffffffffffffffffffffffffffffffffffffffff16815260200190815260200160002060006101000a81548160ff021916908315150217905550600180600073b89eb2e5bb33da1bf9a8a2057ab9844372b0ecd973ffffffffffffffffffffffffffffffffffffffff1673ffffffffffffffffffffffffffffffffffffffff16815260200190815260200160002060006101000a81548160ff02191690831515021790555061222c806101d16000396000f3fe6080604052600436106100c65760003560e01c80639165024c1161007f578063c7c5f0fc11610059578063c7c5f0fc14610278578063ce9a55cd146102a1578063d05e8ea2146102bd578063f14760ae146102e6576100cd565b80639165024c146101e5578063ad262ab714610210578063b69228dc1461023b576100cd565b80631e4bb989146100d257806321fda32a1461010f57806326b1da791461014c5780632e1a7d4d146101685780637353956214610191578063878ab3b0146101ba576100cd565b366100cd57005b600080fd5b3480156100de57600080fd5b506100f960048036038101906100f49190611648565b610323565b60405161010691906116ac565b60405180910390f35b34801561011b57600080fd5b5061013660048036038101906101319190611648565b61039b565b6040516101439190611772565b60405180910390f35b61016660048036038101906101619190611648565b6104c0565b005b34801561017457600080fd5b5061018f600480360381019061018a91906117b9565b610612565b005b34801561019d57600080fd5b506101b860048036038101906101b39190611812565b610749565b005b3480156101c657600080fd5b506101cf61089f565b6040516101dc919061184e565b60405180910390f35b3480156101f157600080fd5b506101fa610967565b6040516102079190611878565b60405180910390f35b34801561021c57600080fd5b5061022561096f565b604051610232919061184e565b60405180910390f35b34801561024757600080fd5b50610262600480360381019061025d9190611812565b610a04565b60405161026f919061184e565b60405180910390f35b34801561028457600080fd5b5061029f600480360381019061029a9190611893565b610ace565b005b6102bb60048036038101906102b69190611648565b610dcd565b005b3480156102c957600080fd5b506102e460048036038101906102df91906117b9565b61107b565b005b3480156102f257600080fd5b5061030d60048036038101906103089190611648565b61125f565b60405161031a91906116ac565b60405180910390f35b600080825111610368576040517f08c379a000000000000000000000000000000000000000000000000000000000815260040161035f9061195f565b60405180910390fd5b60048260405161037891906119f0565b908152602001604051809103902060009054906101000a900460ff169050919050565b6103a36114b5565b600115156004836040516103b791906119f0565b908152602001604051809103902060009054906101000a900460ff16151514610415576040517f08c379a000000000000000000000000000000000000000000000000000000000815260040161040c90611a53565b60405180910390fd5b60038260405161042591906119f0565b9081526020016040518091039020604051806060016040529081600082015481526020016001820160009054906101000a900460ff161515151581526020016001820160019054906101000a900473ffffffffffffffffffffffffffffffffffffffff1673ffffffffffffffffffffffffffffffffffffffff1673ffffffffffffffffffffffffffffffffffffffff16815250509050919050565b6000815111610504576040517f08c379a00000000000000000000000000000000000000000000000000000000081526004016104fb9061195f565b60405180910390fd5b6000151560048260405161051891906119f0565b908152602001604051809103902060009054906101000a900460ff16151514610576576040517f08c379a000000000000000000000000000000000000000000000000000000000815260040161056d90611ae5565b60405180910390fd5b660b2ac9a32f006f34146105bf576040517f08c379a00000000000000000000000000000000000000000000000000000000081526004016105b690611b77565b60405180910390fd5b34600560008282546105d19190611bc6565b9250508190555060016004826040516105ea91906119f0565b908152602001604051809103902060006101000a81548160ff02191690831515021790555050565b33816000808373ffffffffffffffffffffffffffffffffffffffff1673ffffffffffffffffffffffffffffffffffffffff16815260200190815260200160002060009054906101000a900460ff1661069f576040517f08c379a000000000000000000000000000000000000000000000000000000000815260040161069690611c6c565b60405180910390fd5b6005548111156106e4576040517f08c379a00000000000000000000000000000000000000000000000000000000081526004016106db90611cfe565b60405180910390fd5b3373ffffffffffffffffffffffffffffffffffffffff166108fc849081150290604051600060405180830381858888f1935050505015801561072a573d6000803e3d6000fd5b50826005600082825461073d9190611d1e565b92505081905550505050565b600160003373ffffffffffffffffffffffffffffffffffffffff1673ffffffffffffffffffffffffffffffffffffffff16815260200190815260200160002060009054906101000a900460ff166107d5576040517f08c379a00000000000000000000000000000000000000000000000000000000081526004016107cc90611dc4565b60405180910390fd5b6000600260008373ffffffffffffffffffffffffffffffffffffffff1673ffffffffffffffffffffffffffffffffffffffff1681526020019081526020016000205414610857576040517f08c379a000000000000000000000000000000000000000000000000000000000815260040161084e90611e30565b60405180910390fd5b6001600260008373ffffffffffffffffffffffffffffffffffffffff1673ffffffffffffffffffffffffffffffffffffffff1681526020019081526020016000208190555050565b600080600260003373ffffffffffffffffffffffffffffffffffffffff1673ffffffffffffffffffffffffffffffffffffffff1681526020019081526020016000205403610922576040517f08c379a000000000000000000000000000000000000000000000000000000000815260040161091990611dc4565b60405180910390fd5b600260003373ffffffffffffffffffffffffffffffffffffffff1673ffffffffffffffffffffffffffffffffffffffff16815260200190815260200160002054905090565b600033905090565b60008060003373ffffffffffffffffffffffffffffffffffffffff1673ffffffffffffffffffffffffffffffffffffffff16815260200190815260200160002060009054906101000a900460ff166109fc576040517f08c379a00000000000000000000000000000000000000000000000000000000081526004016109f390611dc4565b60405180910390fd5b600554905090565b600080600260008473ffffffffffffffffffffffffffffffffffffffff1673ffffffffffffffffffffffffffffffffffffffff1681526020019081526020016000205403610a87576040517f08c379a0000000000000000000000000000000000000000000000000000000008152600401610a7e90611e9c565b60405180910390fd5b600260008373ffffffffffffffffffffffffffffffffffffffff1673ffffffffffffffffffffffffffffffffffffffff168152602001908152602001600020549050919050565b600160003373ffffffffffffffffffffffffffffffffffffffff1673ffffffffffffffffffffffffffffffffffffffff16815260200190815260200160002060009054906101000a900460ff16610b5a576040517f08c379a0000000000000000000000000000000000000000000000000000000008152600401610b5190611dc4565b60405180910390fd5b60008351118015610b6b5750600082115b610baa576040517f08c379a0000000000000000000000000000000000000000000000000000000008152600401610ba190611f08565b60405180910390fd5b6000600260008373ffffffffffffffffffffffffffffffffffffffff1673ffffffffffffffffffffffffffffffffffffffff1681526020019081526020016000205403610c2c576040517f08c379a0000000000000000000000000000000000000000000000000000000008152600401610c2390611f74565b60405180910390fd5b60011515600484604051610c4091906119f0565b908152602001604051809103902060009054906101000a900460ff16151514610c9e576040517f08c379a0000000000000000000000000000000000000000000000000000000008152600401610c9590611a53565b60405180910390fd5b6000600384604051610cb091906119f0565b90815260200160405180910390206000015414610d02576040517f08c379a0000000000000000000000000000000000000000000000000000000008152600401610cf990612006565b60405180910390fd5b60405180606001604052808381526020016000151581526020018273ffffffffffffffffffffffffffffffffffffffff16815250600384604051610d4691906119f0565b90815260200160405180910390206000820151816000015560208201518160010160006101000a81548160ff02191690831515021790555060408201518160010160016101000a81548173ffffffffffffffffffffffffffffffffffffffff021916908373ffffffffffffffffffffffffffffffffffffffff160217905550905050505050565b6000815111610e11576040517f08c379a0000000000000000000000000000000000000000000000000000000008152600401610e089061195f565b60405180910390fd5b60011515600482604051610e2591906119f0565b908152602001604051809103902060009054906101000a900460ff16151514610e83576040517f08c379a0000000000000000000000000000000000000000000000000000000008152600401610e7a90611a53565b60405180910390fd5b60001515600382604051610e9791906119f0565b908152602001604051809103902060010160009054906101000a900460ff16151514610ef8576040517f08c379a0000000000000000000000000000000000000000000000000000000008152600401610eef90612072565b60405180910390fd5b600381604051610f0891906119f0565b9081526020016040518091039020600001543414610f46600383604051610f2f91906119f0565b908152602001604051809103902060000154611294565b604051602001610f569190612104565b60405160208183030381529060405290610fa6576040517f08c379a0000000000000000000000000000000000000000000000000000000008152600401610f9d919061215f565b60405180910390fd5b506001600382604051610fb991906119f0565b908152602001604051809103902060010160006101000a81548160ff0219169083151502179055503460026000600384604051610ff691906119f0565b908152602001604051809103902060010160019054906101000a900473ffffffffffffffffffffffffffffffffffffffff1673ffffffffffffffffffffffffffffffffffffffff1673ffffffffffffffffffffffffffffffffffffffff16815260200190815260200160002060008282546110719190611bc6565b9250508190555050565b33816000600260008473ffffffffffffffffffffffffffffffffffffffff1673ffffffffffffffffffffffffffffffffffffffff16815260200190815260200160002054036110ff576040517f08c379a00000000000000000000000000000000000000000000000000000000081526004016110f690611c6c565b60405180910390fd5b6001600260008473ffffffffffffffffffffffffffffffffffffffff1673ffffffffffffffffffffffffffffffffffffffff1681526020019081526020016000205461114b9190611d1e565b81111561118d576040517f08c379a000000000000000000000000000000000000000000000000000000000815260040161118490611cfe565b60405180910390fd5b60003373ffffffffffffffffffffffffffffffffffffffff16846040516111b3906121b2565b60006040518083038185875af1925050503d80600081146111f0576040519150601f19603f3d011682016040523d82523d6000602084013e6111f5565b606091505b505090508061120357600080fd5b83600260003373ffffffffffffffffffffffffffffffffffffffff1673ffffffffffffffffffffffffffffffffffffffff16815260200190815260200160002060008282546112529190611d1e565b9250508190555050505050565b600060048260405161127191906119f0565b908152602001604051809103902060009054906101000a900460ff169050919050565b6060600060016112a384611362565b01905060008167ffffffffffffffff8111156112c2576112c161151d565b5b6040519080825280601f01601f1916602001820160405280156112f45781602001600182028036833780820191505090505b509050600082602001820190505b600115611357578080600190039150507f3031323334353637383961626364656600000000000000000000000000000000600a86061a8153600a858161134b5761134a6121c7565b5b04945060008503611302575b819350505050919050565b600080600090507a184f03e93ff9f4daa797ed6e38ed64bf6a1f01000000000000000083106113c0577a184f03e93ff9f4daa797ed6e38ed64bf6a1f01000000000000000083816113b6576113b56121c7565b5b0492506040810190505b6d04ee2d6d415b85acef810000000083106113fd576d04ee2d6d415b85acef810000000083816113f3576113f26121c7565b5b0492506020810190505b662386f26fc10000831061142c57662386f26fc100008381611422576114216121c7565b5b0492506010810190505b6305f5e1008310611455576305f5e100838161144b5761144a6121c7565b5b0492506008810190505b612710831061147a5761271083816114705761146f6121c7565b5b0492506004810190505b6064831061149d5760648381611493576114926121c7565b5b0492506002810190505b600a83106114ac576001810190505b80915050919050565b604051806060016040528060008152602001600015158152602001600073ffffffffffffffffffffffffffffffffffffffff1681525090565b6000604051905090565b600080fd5b600080fd5b600080fd5b600080fd5b6000601f19601f8301169050919050565b7f4e487b7100000000000000000000000000000000000000000000000000000000600052604160045260246000fd5b6115558261150c565b810181811067ffffffffffffffff821117156115745761157361151d565b5b80604052505050565b60006115876114ee565b9050611593828261154c565b919050565b600067ffffffffffffffff8211156115b3576115b261151d565b5b6115bc8261150c565b9050602081019050919050565b82818337600083830152505050565b60006115eb6115e684611598565b61157d565b90508281526020810184848401111561160757611606611507565b5b6116128482856115c9565b509392505050565b600082601f83011261162f5761162e611502565b5b813561163f8482602086016115d8565b91505092915050565b60006020828403121561165e5761165d6114f8565b5b600082013567ffffffffffffffff81111561167c5761167b6114fd565b5b6116888482850161161a565b91505092915050565b60008115159050919050565b6116a681611691565b82525050565b60006020820190506116c1600083018461169d565b92915050565b6000819050919050565b6116da816116c7565b82525050565b6116e981611691565b82525050565b600073ffffffffffffffffffffffffffffffffffffffff82169050919050565b600061171a826116ef565b9050919050565b61172a8161170f565b82525050565b60608201600082015161174660008501826116d1565b50602082015161175960208501826116e0565b50604082015161176c6040850182611721565b50505050565b60006060820190506117876000830184611730565b92915050565b611796816116c7565b81146117a157600080fd5b50565b6000813590506117b38161178d565b92915050565b6000602082840312156117cf576117ce6114f8565b5b60006117dd848285016117a4565b91505092915050565b6117ef8161170f565b81146117fa57600080fd5b50565b60008135905061180c816117e6565b92915050565b600060208284031215611828576118276114f8565b5b6000611836848285016117fd565b91505092915050565b611848816116c7565b82525050565b6000602082019050611863600083018461183f565b92915050565b6118728161170f565b82525050565b600060208201905061188d6000830184611869565b92915050565b6000806000606084860312156118ac576118ab6114f8565b5b600084013567ffffffffffffffff8111156118ca576118c96114fd565b5b6118d68682870161161a565b93505060206118e7868287016117a4565b92505060406118f8868287016117fd565b9150509250925092565b600082825260208201905092915050565b7f546f6b656e2076616c7565206d757374206265206e6f7420656d707479000000600082015250565b6000611949601d83611902565b915061195482611913565b602082019050919050565b600060208201905081810360008301526119788161193c565b9050919050565b600081519050919050565b600081905092915050565b60005b838110156119b3578082015181840152602081019050611998565b60008484015250505050565b60006119ca8261197f565b6119d4818561198a565b93506119e4818560208601611995565b80840191505092915050565b60006119fc82846119bf565b915081905092915050565b7f596f757220746f6b656e206973206e6f74207265676973746572656400000000600082015250565b6000611a3d601c83611902565b9150611a4882611a07565b602082019050919050565b60006020820190508181036000830152611a6c81611a30565b9050919050565b7f5468697320746f6b656e20686173206265656e2072656769737465726564206260008201527f65666f7265000000000000000000000000000000000000000000000000000000602082015250565b6000611acf602583611902565b9150611ada82611a73565b604082019050919050565b60006020820190508181036000830152611afe81611ac2565b9050919050565b7f416d6f756e74206d75737420626520332c3134332c3237302c3235382c33373660008201527f2c38313520776569000000000000000000000000000000000000000000000000602082015250565b6000611b61602883611902565b9150611b6c82611b05565b604082019050919050565b60006020820190508181036000830152611b9081611b54565b9050919050565b7f4e487b7100000000000000000000000000000000000000000000000000000000600052601160045260246000fd5b6000611bd1826116c7565b9150611bdc836116c7565b9250828201905080821115611bf457611bf3611b97565b5b92915050565b7f596f75722077616c6c65742061646472657373206973206e6f7420616c6c6f7760008201527f656420746f207769746864726177000000000000000000000000000000000000602082015250565b6000611c56602e83611902565b9150611c6182611bfa565b604082019050919050565b60006020820190508181036000830152611c8581611c49565b9050919050565b7f5468652062616c616e6365206973206e6f7420656e6f75676820746f2077697460008201527f6864726177000000000000000000000000000000000000000000000000000000602082015250565b6000611ce8602583611902565b9150611cf382611c8c565b604082019050919050565b60006020820190508181036000830152611d1781611cdb565b9050919050565b6000611d29826116c7565b9150611d34836116c7565b9250828203905081811115611d4c57611d4b611b97565b5b92915050565b7f596f7572206163636f756e742063616e206e6f7420726571756573742074686960008201527f7320666561747572650000000000000000000000000000000000000000000000602082015250565b6000611dae602983611902565b9150611db982611d52565b604082019050919050565b60006020820190508181036000830152611ddd81611da1565b9050919050565b7f54686973206163636f756e742077617320726567697374657265642100000000600082015250565b6000611e1a601c83611902565b9150611e2582611de4565b602082019050919050565b60006020820190508181036000830152611e4981611e0d565b9050919050565b7f446f6e27742065786973742074686973206163636f756e740000000000000000600082015250565b6000611e86601883611902565b9150611e9182611e50565b602082019050919050565b60006020820190508181036000830152611eb581611e79565b9050919050565b7f416c6c20696e70757473206d757374206265206e6f7420656d70747900000000600082015250565b6000611ef2601c83611902565b9150611efd82611ebc565b602082019050919050565b60006020820190508181036000830152611f2181611ee5565b9050919050565b7f446f6e2774206578697374207468697320646f63746f72206163636f756e7400600082015250565b6000611f5e601f83611902565b9150611f6982611f28565b602082019050919050565b60006020820190508181036000830152611f8d81611f51565b9050919050565b7f546865206461746120666f72207468697320746f6b656e20776173207570646160008201527f7465642100000000000000000000000000000000000000000000000000000000602082015250565b6000611ff0602483611902565b9150611ffb82611f94565b604082019050919050565b6000602082019050818103600083015261201f81611fe3565b9050919050565b7f596f75722062696c6c20686173206265656e2070616964000000000000000000600082015250565b600061205c601783611902565b915061206782612026565b602082019050919050565b6000602082019050818103600083015261208b8161204f565b9050919050565b7f54686520616d6f756e7420746f2070617920666f72207468652062696c6c206960008201527f7320000000000000000000000000000000000000000000000000000000000000602082015250565b60006120ee60228361198a565b91506120f982612092565b602282019050919050565b600061210f826120e1565b915061211b82846119bf565b915081905092915050565b60006121318261197f565b61213b8185611902565b935061214b818560208601611995565b6121548161150c565b840191505092915050565b600060208201905081810360008301526121798184612126565b905092915050565b600081905092915050565b50565b600061219c600083612181565b91506121a78261218c565b600082019050919050565b60006121bd8261218f565b9150819050919050565b7f4e487b7100000000000000000000000000000000000000000000000000000000600052601260045260246000fdfea2646970667358221220d7ad4764cdc583184719a20770d804d4e9029dde89d44b01c1de3ecd90413e8f64736f6c63430008110033",
  "immutableReferences": {},
  "source": "// SPDX-License-Identifier: GPL-3.0\r\n\r\npragma solidity >=0.7.0 <0.9.0;\r\nimport \"@openzeppelin/contracts/utils/Strings.sol\";\r\n\r\ncontract HealthcarePayments {\r\n    receive() external payable {}\r\n\r\n    struct Bill {\r\n        // string billId;\r\n        uint256 amount;\r\n        bool isPayment;\r\n        // address patientAccount;\r\n        // string patientId;\r\n        address doctorAccount;\r\n    }\r\n\r\n    mapping(address => bool) accountForWithdraw;\r\n    mapping(address => bool) accountForAdmin;\r\n    mapping(address => uint256) doctorAccounts;\r\n    mapping(string => Bill) patientBillDict;\r\n    mapping(string => bool) existToken;\r\n    uint256 adminBalance = 0;\r\n\r\n    constructor() {\r\n        accountForWithdraw[0x0199C74bB832C0CcF1971CD34Fe0bBE7D12A1DC0] = true;\r\n        accountForWithdraw[0x287AebD0467bde80370042DEd258D9ABADf94487] = true;\r\n        accountForAdmin[0xf82825161bD8a7A98345415F11a0432b38159B48] = true;\r\n        accountForAdmin[0xB89eB2e5bb33da1bF9a8a2057Ab9844372b0EcD9] = true;\r\n    }\r\n\r\n    // event TransactionMade(\r\n    //     address indexed from,\r\n    //     address indexed to,\r\n    //     string billId,\r\n    //     uint256 value\r\n    // );\r\n\r\n    function registerAccountForDoctor(address doctorAccount) public {\r\n        require(\r\n            accountForAdmin[msg.sender],\r\n            \"Your account can not request this feature\"\r\n        );\r\n        require(\r\n            doctorAccounts[doctorAccount] == 0,\r\n            \"This account was registered!\"\r\n        );\r\n        doctorAccounts[doctorAccount] = 1;\r\n    }\r\n\r\n    function initBill(string memory token) external payable {\r\n        require(bytes(token).length > 0, \"Token value must be not empty\");\r\n        require(\r\n            existToken[token] == false,\r\n            \"This token has been registered before\"\r\n        );\r\n        require(\r\n            msg.value == 3143270258376815,\r\n            \"Amount must be 3,143,270,258,376,815 wei\"\r\n        );\r\n        adminBalance += msg.value;\r\n        existToken[token] = true;\r\n    }\r\n\r\n    function updateBillData(\r\n        string memory token,\r\n        // string memory _billId,\r\n        // string memory _patientId,\r\n        uint256 _amount,\r\n        address _doctorAccount\r\n    ) public {\r\n        require(\r\n            accountForAdmin[msg.sender],\r\n            \"Your account can not request this feature\"\r\n        );\r\n        require(\r\n            bytes(token).length > 0 &&\r\n                // bytes(_billId).length > 0 &&\r\n                // bytes(_patientId).length > 0 &&\r\n                _amount > 0,\r\n            \"All inputs must be not empty\"\r\n        );\r\n        require(\r\n            doctorAccounts[_doctorAccount] != 0,\r\n            \"Don't exist this doctor account\"\r\n        );\r\n        require(existToken[token] == true, \"Your token is not registered\");\r\n        require(\r\n            patientBillDict[token].amount == 0,\r\n            \"The data for this token was updated!\"\r\n        );\r\n        patientBillDict[token] = Bill(\r\n            // _billId,\r\n            _amount,\r\n            false,\r\n            // address(0),\r\n            // _patientId,\r\n            _doctorAccount\r\n        );\r\n    }\r\n\r\n    function getBillDataByToken(string memory token)\r\n        public\r\n        view\r\n        returns (Bill memory)\r\n    {\r\n        require(existToken[token] == true, \"Your token is not registered\");\r\n        return patientBillDict[token];\r\n    }\r\n\r\n    function addFunds(string memory token) external payable {\r\n        require(bytes(token).length > 0, \"Token value must be not empty\");\r\n        require(existToken[token] == true, \"Your token is not registered\");\r\n        require(\r\n            patientBillDict[token].isPayment == false,\r\n            \"Your bill has been paid\"\r\n        );\r\n        require(\r\n            msg.value == patientBillDict[token].amount,\r\n            string(\r\n                abi.encodePacked(\r\n                    \"The amount to pay for the bill is \",\r\n                    Strings.toString(patientBillDict[token].amount)\r\n                )\r\n            )\r\n        );\r\n        patientBillDict[token].isPayment = true;\r\n        // patientBillDict[token].patientAccount = msg.sender;\r\n        doctorAccounts[patientBillDict[token].doctorAccount] += msg.value;\r\n        //     // emit TransactionMade(msg.sender, address(this), _billId, msg.value);\r\n    }\r\n\r\n    function checkTokenStatus(string memory token) public view returns (bool) {\r\n        require(bytes(token).length > 0, \"Token value must be not empty\");\r\n        return existToken[token];\r\n    }\r\n\r\n    function getBalanceByDoctorAccount() public view returns (uint256) {\r\n        require(\r\n            doctorAccounts[msg.sender] != 0,\r\n            \"Your account can not request this feature\"\r\n        );\r\n        // require(doctorAccounts[_doctorAccount] != 0, \"Don't exist this account\");\r\n        return doctorAccounts[msg.sender];\r\n    }\r\n\r\n    function getBalanceByAdminAccount() public view returns (uint256) {\r\n        require(\r\n            accountForWithdraw[msg.sender],\r\n            \"Your account can not request this feature\"\r\n        );\r\n        // require(doctorAccounts[_doctorAccount] != 0, \"Don't exist this account\");\r\n        return adminBalance;\r\n    }\r\n\r\n    function withdraw(uint256 withdrawAmount)\r\n        public\r\n        checkValidAdminTransaction(msg.sender, withdrawAmount)\r\n    {\r\n        payable(msg.sender).transfer(withdrawAmount);\r\n        adminBalance -= withdrawAmount;\r\n    }\r\n\r\n    function withdrawForDoctor(uint256 withdrawAmount)\r\n        public\r\n        checkValidDoctorTransaction(msg.sender, withdrawAmount)\r\n    {\r\n        // payable(msg.sender).transfer(withdrawAmount);\r\n        (bool success, ) = payable(msg.sender).call{value: withdrawAmount}(\"\");\r\n        require(success);\r\n        doctorAccounts[msg.sender] -= withdrawAmount;\r\n    }\r\n\r\n    modifier checkValidAdminTransaction(\r\n        address withdrawAccount,\r\n        uint256 withdrawAmount\r\n    ) {\r\n        require(\r\n            accountForWithdraw[withdrawAccount],\r\n            \"Your wallet address is not allowed to withdraw\"\r\n        );\r\n        require(\r\n            withdrawAmount <= adminBalance,\r\n            \"The balance is not enough to withdraw\"\r\n        );\r\n        _;\r\n    }\r\n\r\n    modifier checkValidDoctorTransaction(\r\n        address doctorAccount,\r\n        uint256 withdrawAmount\r\n    ) {\r\n        require(\r\n            doctorAccounts[doctorAccount] != 0,\r\n            \"Your wallet address is not allowed to withdraw\"\r\n        );\r\n        require(\r\n            withdrawAmount <= doctorAccounts[doctorAccount] - 1,\r\n            \"The balance is not enough to withdraw\"\r\n        );\r\n        _;\r\n    }\r\n\r\n    // Functions for debug\r\n    function checkCurrentAddressDebug() public view returns (address) {\r\n        return msg.sender;\r\n    }\r\n\r\n    function getBalanceByDoctorAccountDebug(address accountAddress)\r\n        public\r\n        view\r\n        returns (uint256)\r\n    {\r\n        // require(\r\n        //     doctorAccounts[msg.sender] != 0,\r\n        //     \"Your account can not request this feature\"\r\n        // );\r\n        require(\r\n            doctorAccounts[accountAddress] != 0,\r\n            \"Don't exist this account\"\r\n        );\r\n        return doctorAccounts[accountAddress];\r\n    }\r\n\r\n    function checkExistToken(string memory token) public view returns (bool) {\r\n        return existToken[token];\r\n    }\r\n}\r\n",
  "sourcePath": "F:\\Pentest Document\\Development\\Fullstack\\BookingCare\\contracts\\HealthcarePaymentsV2.sol",
  "compiler": {
    "name": "solc",
    "version": "0.8.17+commit.8df45f5f.Emscripten.clang"
  },
  "schemaVersion": "3.4.11",
  "updatedAt": "2023-03-07T12:41:06.318Z",
  "networkType": "ethereum",
  "devdoc": {
    "kind": "dev",
    "methods": {},
    "version": 1
  },
  "userdoc": {
    "kind": "user",
    "methods": {},
    "version": 1
  }
}